{
  "contractName": "ItemManager",
  "abi": [
    {
      "anonymous": false,
      "inputs": [
        {
          "indexed": false,
          "internalType": "uint256",
          "name": "_itemIndex",
          "type": "uint256"
        },
        {
          "indexed": false,
          "internalType": "uint256",
          "name": "_step",
          "type": "uint256"
        },
        {
          "indexed": false,
          "internalType": "address",
          "name": "_address",
          "type": "address"
        }
      ],
      "name": "SupplyChainStep",
      "type": "event"
    },
    {
      "inputs": [],
      "name": "_owner",
      "outputs": [
        {
          "internalType": "address",
          "name": "",
          "type": "address"
        }
      ],
      "stateMutability": "view",
      "type": "function",
      "constant": true
    },
    {
      "inputs": [],
      "name": "isOwner",
      "outputs": [
        {
          "internalType": "bool",
          "name": "",
          "type": "bool"
        }
      ],
      "stateMutability": "view",
      "type": "function",
      "constant": true
    },
    {
      "inputs": [
        {
          "internalType": "uint256",
          "name": "",
          "type": "uint256"
        }
      ],
      "name": "items",
      "outputs": [
        {
          "internalType": "contract Item",
          "name": "_item",
          "type": "address"
        },
        {
          "internalType": "enum ItemManager.SupplyChainSteps",
          "name": "_step",
          "type": "uint8"
        },
        {
          "internalType": "string",
          "name": "_identifier",
          "type": "string"
        },
        {
          "internalType": "uint256",
          "name": "_priceInWei",
          "type": "uint256"
        }
      ],
      "stateMutability": "view",
      "type": "function",
      "constant": true
    },
    {
      "inputs": [
        {
          "internalType": "string",
          "name": "_identifier",
          "type": "string"
        },
        {
          "internalType": "uint256",
          "name": "_priceInWei",
          "type": "uint256"
        }
      ],
      "name": "createItem",
      "outputs": [],
      "stateMutability": "nonpayable",
      "type": "function"
    },
    {
      "inputs": [
        {
          "internalType": "uint256",
          "name": "_index",
          "type": "uint256"
        }
      ],
      "name": "triggerPayment",
      "outputs": [],
      "stateMutability": "payable",
      "type": "function",
      "payable": true
    },
    {
      "inputs": [
        {
          "internalType": "uint256",
          "name": "_index",
          "type": "uint256"
        }
      ],
      "name": "triggerDelivery",
      "outputs": [],
      "stateMutability": "nonpayable",
      "type": "function"
    }
  ],
  "bytecode": "0x608060405234801561001057600080fd5b50336000806101000a81548173ffffffffffffffffffffffffffffffffffffffff021916908373ffffffffffffffffffffffffffffffffffffffff160217905550611bba806100606000396000f3fe6080604052600436106200005c5760003560e01c8063800fb83f14620000615780638c55174214620000815780638f32d59b14620000af578063b2bdfa7b14620000df578063bfb231d2146200010f578063cd31831e1462000156575b600080fd5b6200007f6004803603810190620000799190620009a7565b62000184565b005b3480156200008e57600080fd5b50620000ad6004803603810190620000a7919062000b3b565b6200040a565b005b348015620000bc57600080fd5b50620000c762000611565b604051620000d6919062000bbe565b60405180910390f35b348015620000ec57600080fd5b50620000f762000668565b60405162000106919062000c20565b60405180910390f35b3480156200011c57600080fd5b506200013b6004803603810190620001359190620009a7565b6200068c565b6040516200014d949392919062000dc2565b60405180910390f35b3480156200016357600080fd5b506200018260048036038101906200017c9190620009a7565b62000779565b005b3373ffffffffffffffffffffffffffffffffffffffff166001600083815260200190815260200160002060000160009054906101000a900473ffffffffffffffffffffffffffffffffffffffff1673ffffffffffffffffffffffffffffffffffffffff16146200022b576040517f08c379a0000000000000000000000000000000000000000000000000000000008152600401620002229062000e8c565b60405180910390fd5b3460016000838152602001908152602001600020600201541462000286576040517f08c379a00000000000000000000000000000000000000000000000000000000081526004016200027d9062000f24565b60405180910390fd5b600060028111156200029d576200029c62000ca8565b5b6001600083815260200190815260200160002060000160149054906101000a900460ff166002811115620002d657620002d562000ca8565b5b1462000319576040517f08c379a0000000000000000000000000000000000000000000000000000000008152600401620003109062000fbc565b60405180910390fd5b600180600083815260200190815260200160002060000160146101000a81548160ff0219169083600281111562000355576200035462000ca8565b5b02179055507fa4035636e99f06b7651a604c1019fa4e8779fe68ef27eeb74dff2de348f6199b816001600084815260200190815260200160002060000160149054906101000a900460ff166002811115620003b557620003b462000ca8565b5b60016000600254815260200190815260200160002060000160009054906101000a900473ffffffffffffffffffffffffffffffffffffffff16604051620003ff9392919062000fde565b60405180910390a150565b6200041462000611565b62000456576040517f08c379a00000000000000000000000000000000000000000000000000000000081526004016200044d906200106b565b60405180910390fd5b600030600254836040516200046b906200094a565b6200047993929190620010c6565b604051809103906000f08015801562000496573d6000803e3d6000fd5b5090508060016000600254815260200190815260200160002060000160006101000a81548173ffffffffffffffffffffffffffffffffffffffff021916908373ffffffffffffffffffffffffffffffffffffffff1602179055508160016000600254815260200190815260200160002060020181905550600060016000600254815260200190815260200160002060000160146101000a81548160ff021916908360028111156200054c576200054b62000ca8565b5b02179055508260016000600254815260200190815260200160002060010190816200057891906200132f565b507fa4035636e99f06b7651a604c1019fa4e8779fe68ef27eeb74dff2de348f6199b60025460016000600254815260200190815260200160002060000160149054906101000a900460ff166002811115620005d857620005d762000ca8565b5b83604051620005ea9392919062000fde565b60405180910390a160026000815480929190620006079062001445565b9190505550505050565b60008060009054906101000a900473ffffffffffffffffffffffffffffffffffffffff1673ffffffffffffffffffffffffffffffffffffffff163373ffffffffffffffffffffffffffffffffffffffff1614905090565b60008054906101000a900473ffffffffffffffffffffffffffffffffffffffff1681565b60016020528060005260406000206000915090508060000160009054906101000a900473ffffffffffffffffffffffffffffffffffffffff16908060000160149054906101000a900460ff1690806001018054620006ea9062001132565b80601f0160208091040260200160405190810160405280929190818152602001828054620007189062001132565b8015620007695780601f106200073d5761010080835404028352916020019162000769565b820191906000526020600020905b8154815290600101906020018083116200074b57829003601f168201915b5050505050908060020154905084565b6200078362000611565b620007c5576040517f08c379a0000000000000000000000000000000000000000000000000000000008152600401620007bc906200106b565b60405180910390fd5b60016002811115620007dc57620007db62000ca8565b5b6001600083815260200190815260200160002060000160149054906101000a900460ff16600281111562000815576200081462000ca8565b5b1462000858576040517f08c379a00000000000000000000000000000000000000000000000000000000081526004016200084f9062001508565b60405180910390fd5b60026001600083815260200190815260200160002060000160146101000a81548160ff0219169083600281111562000895576200089462000ca8565b5b02179055507fa4035636e99f06b7651a604c1019fa4e8779fe68ef27eeb74dff2de348f6199b816001600084815260200190815260200160002060000160149054906101000a900460ff166002811115620008f557620008f462000ca8565b5b60016000600254815260200190815260200160002060000160009054906101000a900473ffffffffffffffffffffffffffffffffffffffff166040516200093f9392919062000fde565b60405180910390a150565b61065a806200152b83390190565b6000604051905090565b600080fd5b600080fd5b6000819050919050565b62000981816200096c565b81146200098d57600080fd5b50565b600081359050620009a18162000976565b92915050565b600060208284031215620009c057620009bf62000962565b5b6000620009d08482850162000990565b91505092915050565b600080fd5b600080fd5b6000601f19601f8301169050919050565b7f4e487b7100000000000000000000000000000000000000000000000000000000600052604160045260246000fd5b62000a2e82620009e3565b810181811067ffffffffffffffff8211171562000a505762000a4f620009f4565b5b80604052505050565b600062000a6562000958565b905062000a73828262000a23565b919050565b600067ffffffffffffffff82111562000a965762000a95620009f4565b5b62000aa182620009e3565b9050602081019050919050565b82818337600083830152505050565b600062000ad462000ace8462000a78565b62000a59565b90508281526020810184848401111562000af35762000af2620009de565b5b62000b0084828562000aae565b509392505050565b600082601f83011262000b205762000b1f620009d9565b5b813562000b3284826020860162000abd565b91505092915050565b6000806040838503121562000b555762000b5462000962565b5b600083013567ffffffffffffffff81111562000b765762000b7562000967565b5b62000b848582860162000b08565b925050602062000b978582860162000990565b9150509250929050565b60008115159050919050565b62000bb88162000ba1565b82525050565b600060208201905062000bd5600083018462000bad565b92915050565b600073ffffffffffffffffffffffffffffffffffffffff82169050919050565b600062000c088262000bdb565b9050919050565b62000c1a8162000bfb565b82525050565b600060208201905062000c37600083018462000c0f565b92915050565b6000819050919050565b600062000c6862000c6262000c5c8462000bdb565b62000c3d565b62000bdb565b9050919050565b600062000c7c8262000c47565b9050919050565b600062000c908262000c6f565b9050919050565b62000ca28162000c83565b82525050565b7f4e487b7100000000000000000000000000000000000000000000000000000000600052602160045260246000fd5b6003811062000ceb5762000cea62000ca8565b5b50565b600081905062000cfe8262000cd7565b919050565b600062000d108262000cee565b9050919050565b62000d228162000d03565b82525050565b600081519050919050565b600082825260208201905092915050565b60005b8381101562000d6457808201518184015260208101905062000d47565b60008484015250505050565b600062000d7d8262000d28565b62000d89818562000d33565b935062000d9b81856020860162000d44565b62000da681620009e3565b840191505092915050565b62000dbc816200096c565b82525050565b600060808201905062000dd9600083018762000c97565b62000de8602083018662000d17565b818103604083015262000dfc818562000d70565b905062000e0d606083018462000db1565b95945050505050565b7f6f6e6c79206974656d20697320616c6c6f77656420746f20757064617465206960008201527f7473656c66000000000000000000000000000000000000000000000000000000602082015250565b600062000e7460258362000d33565b915062000e818262000e16565b604082019050919050565b6000602082019050818103600083015262000ea78162000e65565b9050919050565b7f706c656173652070617920616d6f756e742065786163746c7920657175616c2060008201527f746f206974656d20707269636520000000000000000000000000000000000000602082015250565b600062000f0c602e8362000d33565b915062000f198262000eae565b604082019050919050565b6000602082019050818103600083015262000f3f8162000efd565b9050919050565b7f4974656d206973206675727468657220696e2074686520737570706c7920636860008201527f61696e0000000000000000000000000000000000000000000000000000000000602082015250565b600062000fa460238362000d33565b915062000fb18262000f46565b604082019050919050565b6000602082019050818103600083015262000fd78162000f95565b9050919050565b600060608201905062000ff5600083018662000db1565b62001004602083018562000db1565b62001013604083018462000c0f565b949350505050565b7f4f776e61626c653a2063616c6c6572206973206e6f7420746865206f776e6572600082015250565b60006200105360208362000d33565b915062001060826200101b565b602082019050919050565b60006020820190508181036000830152620010868162001044565b9050919050565b60006200109a8262000c47565b9050919050565b6000620010ae826200108d565b9050919050565b620010c081620010a1565b82525050565b6000606082019050620010dd6000830186620010b5565b620010ec602083018562000db1565b620010fb604083018462000db1565b949350505050565b7f4e487b7100000000000000000000000000000000000000000000000000000000600052602260045260246000fd5b600060028204905060018216806200114b57607f821691505b60208210810362001161576200116062001103565b5b50919050565b60008190508160005260206000209050919050565b60006020601f8301049050919050565b600082821b905092915050565b600060088302620011cb7fffffffffffffffffffffffffffffffffffffffffffffffffffffffffffffffff826200118c565b620011d786836200118c565b95508019841693508086168417925050509392505050565b6000620012106200120a62001204846200096c565b62000c3d565b6200096c565b9050919050565b6000819050919050565b6200122c83620011ef565b620012446200123b8262001217565b84845462001199565b825550505050565b600090565b6200125b6200124c565b6200126881848462001221565b505050565b5b8181101562001290576200128460008262001251565b6001810190506200126e565b5050565b601f821115620012df57620012a98162001167565b620012b4846200117c565b81016020851015620012c4578190505b620012dc620012d3856200117c565b8301826200126d565b50505b505050565b600082821c905092915050565b60006200130460001984600802620012e4565b1980831691505092915050565b60006200131f8383620012f1565b9150826002028217905092915050565b6200133a8262000d28565b67ffffffffffffffff811115620013565762001355620009f4565b5b62001362825462001132565b6200136f82828562001294565b600060209050601f831160018114620013a7576000841562001392578287015190505b6200139e858262001311565b8655506200140e565b601f198416620013b78662001167565b60005b82811015620013e157848901518255600182019150602085019450602081019050620013ba565b86831015620014015784890151620013fd601f891682620012f1565b8355505b6001600288020188555050505b505050505050565b7f4e487b7100000000000000000000000000000000000000000000000000000000600052601160045260246000fd5b600062001452826200096c565b91507fffffffffffffffffffffffffffffffffffffffffffffffffffffffffffffffff820362001487576200148662001416565b5b600182019050919050565b7f4974656d20656974686572206e6f742063726561746564206f72206e6f74207060008201527f6169640000000000000000000000000000000000000000000000000000000000602082015250565b6000620014f060238362000d33565b9150620014fd8262001492565b604082019050919050565b600060208201905081810360008301526200152381620014e1565b905091905056fe608060405234801561001057600080fd5b5060405161065a38038061065a83398181016040528101906100329190610134565b82600360006101000a81548173ffffffffffffffffffffffffffffffffffffffff021916908373ffffffffffffffffffffffffffffffffffffffff1602179055508060018190555081600081905550505050610187565b600080fd5b600073ffffffffffffffffffffffffffffffffffffffff82169050919050565b60006100b98261008e565b9050919050565b60006100cb826100ae565b9050919050565b6100db816100c0565b81146100e657600080fd5b50565b6000815190506100f8816100d2565b92915050565b6000819050919050565b610111816100fe565b811461011c57600080fd5b50565b60008151905061012e81610108565b92915050565b60008060006060848603121561014d5761014c610089565b5b600061015b868287016100e9565b935050602061016c8682870161011f565b925050604061017d8682870161011f565b9150509250925092565b6104c4806101966000396000f3fe60806040523661020c57600154341461004d576040517f08c379a000000000000000000000000000000000000000000000000000000000815260040161004490610277565b60405180910390fd5b600060025414610092576040517f08c379a0000000000000000000000000000000000000000000000000000000008152600401610089906102e3565b60405180910390fd5b34600260008282546100a4919061033c565b925050819055506000600360009054906101000a900473ffffffffffffffffffffffffffffffffffffffff1673ffffffffffffffffffffffffffffffffffffffff16346000546040516024016100fa919061037f565b6040516020818303038152906040527f800fb83f000000000000000000000000000000000000000000000000000000007bffffffffffffffffffffffffffffffffffffffffffffffffffffffff19166020820180517bffffffffffffffffffffffffffffffffffffffffffffffffffffffff8381831617835250505050604051610184919061040b565b60006040518083038185875af1925050503d80600081146101c1576040519150601f19603f3d011682016040523d82523d6000602084013e6101c6565b606091505b505090508061020a576040517f08c379a00000000000000000000000000000000000000000000000000000000081526004016102019061046e565b60405180910390fd5b005b34801561021857600080fd5b005b600082825260208201905092915050565b7f6f6e6c792066756c6c207061796d656e74206163636570746564000000000000600082015250565b6000610261601a8361021a565b915061026c8261022b565b602082019050919050565b6000602082019050818103600083015261029081610254565b9050919050565b7f6974656d20697320616c72656164792070616964000000000000000000000000600082015250565b60006102cd60148361021a565b91506102d882610297565b602082019050919050565b600060208201905081810360008301526102fc816102c0565b9050919050565b6000819050919050565b7f4e487b7100000000000000000000000000000000000000000000000000000000600052601160045260246000fd5b600061034782610303565b915061035283610303565b925082820190508082111561036a5761036961030d565b5b92915050565b61037981610303565b82525050565b60006020820190506103946000830184610370565b92915050565b600081519050919050565b600081905092915050565b60005b838110156103ce5780820151818401526020810190506103b3565b60008484015250505050565b60006103e58261039a565b6103ef81856103a5565b93506103ff8185602086016103b0565b80840191505092915050565b600061041782846103da565b915081905092915050565b7f7472616e73616374696f6e206661696c65642c63616e63656c6c696e672e2e2e600082015250565b600061045860208361021a565b915061046382610422565b602082019050919050565b600060208201905081810360008301526104878161044b565b905091905056fea26469706673582212200b1706092bb887d8f76718fdc88ba309cb592c41ec37da9f99c765595d2ae75864736f6c63430008100033a26469706673582212208c22bc400e78c6c9fd2bd1414ca07e6d30ef71d06c8fb167f1f4cf88f2a3645164736f6c63430008100033",
  "immutableReferences": {},
  "source": "pragma solidity 0.8.16;\r\nimport \"./Ownable.sol\";\r\nimport \"./Item.sol\";\r\ncontract ItemManager is Ownable{ \r\n\r\n    enum SupplyChainSteps{Created, Paid, Delivered}\r\n\r\n    struct S_Item {\r\n        Item _item;\r\n        ItemManager.SupplyChainSteps _step;\r\n        string _identifier;\r\n        uint _priceInWei;\r\n    }\r\n    mapping(uint => S_Item) public items;\r\n    uint index;\r\n   \r\n    event SupplyChainStep(uint _itemIndex, uint _step,address _address);\r\n    \r\n    function createItem(string memory _identifier, uint _priceInWei) public onlyOwner {\r\n        Item item = new Item(this,index,_priceInWei);\r\n        items[index]._item = item;\r\n        items[index]._priceInWei = _priceInWei;\r\n        items[index]._step = SupplyChainSteps.Created;\r\n        items[index]._identifier = _identifier;\r\n        emit SupplyChainStep(index, uint(items[index]._step),address(item));\r\n        index++;\r\n    }\r\n\r\n    function triggerPayment(uint _index) public payable {\r\n        require (address(items[_index]._item)==msg.sender,\"only item is allowed to update itself\");\r\n        require(items[_index]._priceInWei == msg.value, \"please pay amount exactly equal to item price \");\r\n        require(items[_index]._step == SupplyChainSteps.Created, \"Item is further in the supply chain\");\r\n        items[_index]._step = SupplyChainSteps.Paid;\r\n        emit SupplyChainStep(_index, uint(items[_index]._step),address(items[index]._item));\r\n    }\r\n    \r\n    function triggerDelivery(uint _index) public onlyOwner {\r\n        require(items[_index]._step == SupplyChainSteps.Paid, \"Item either not created or not paid\");\r\n        items[_index]._step = SupplyChainSteps.Delivered;\r\n        emit SupplyChainStep(_index, uint(items[_index]._step),address(items[index]._item));\r\n    }\r\n}   ",
  "sourcePath": "D:\\Blockchain\\Projects\\Event Triggers for Supply Chain Management\\EventTriggers\\truffle\\contracts\\ItemManager.sol",
  "compiler": {
    "name": "solc",
    "version": "0.8.16+commit.07a7930e.Emscripten.clang"
  },
  "schemaVersion": "3.4.10",
  "updatedAt": "2022-11-23T19:12:40.028Z",
  "networkType": "ethereum",
  "devdoc": {
    "kind": "dev",
    "methods": {},
    "version": 1
  },
  "userdoc": {
    "kind": "user",
    "methods": {},
    "version": 1
  }
}